:100000000C9434000C9451000C9451000C94510049
:100010000C9451000C9451000C9451000C9451001C
:100020000C9451000C9451000C9451000C9451000C
:100030000C9451000C9451000C9451000C945100FC
:100040000C9451000C9451000C9451000C945100EC
:100050000C945100040111011E012B0138014501CE
:1000600052015F016C01790111241FBECFE5D8E078
:10007000DEBFCDBF11E0A0E6B0E0ECE1F3E002C0EE
:1000800005900D92AA30B107D9F721E0AAE0B1E0BE
:1000900001C01D92AB30B207E1F70E94EF000C9453
:1000A0008C010C9400009BB39F70282F207F922B13
:1000B0009BBBC198C39A35E33A95F1F70000C3980A
:1000C000EFE3FFE13197F1F700C000002BB32F7091
:1000D000F0E18F9FC0011124822B8BBBC39A35E0C6
:1000E0003A95F1F70000C3988FE39FE10197F1F78C
:1000F00000C0000008958AB3806F8ABB87B38F6009
:1001000087BBC2982FEF89EF90E02150804090404C
:10011000E1F700C0000083E30E94530082E30E94E5
:10012000530088E20E9453008CE00E94530086E056
:100130000E94530081E00E94530008959BB39F707A
:10014000282F207F922B9BBBC19AC39A35E33A9507
:10015000F1F70000C398EFE1F3E03197F1F700C049
:1001600000002BB32F70F0E18F9FC0011124822B70
:100170008BBBC39A35E33A95F1F70000C3988FE53E
:100180009DE60197F1F700C000000895CF93DF933B
:10019000EC018881882331F021960E949E0089918C
:1001A0008111FBCFDF91CF91089587E689B980B5A2
:1001B000866880BD88E18AB908955D9BFECF8CB1C9
:1001C000089587B3806A87BBBE98A09A8DB1816578
:1001D0008DB9789408958FB9779BFECF08950E94CA
:1001E0007B000E94D5000E94E1000E94DD00809308
:1001F0000A0190E0FC01E156F109EA30F105A8F7A7
:10020000E65DFF4F0C94860180E80E94530080E673
:1002100090E00E94C600A89881E60E94EB00A89A90
:10022000E4CF80E80E9453008FE690E00E94C60071
:10023000A89882E60E94EB00A89AD7CF80E80E9497
:1002400053008EE790E00E94C600A89883E60E94C3
:10025000EB00A89ACACF80E80E9453008FE890E094
:100260000E94C600A89884E60E94EB00A89ABDCF21
:1002700080E80E9453008FE990E00E94C600A89891
:1002800085E60E94EB00A89AB0CF80E80E94530058
:1002900082EB90E00E94C600A89886E60E94EB00E0
:1002A000A89AA3CF80E80E94530082EC90E00E94BD
:1002B000C600A89887E60E94EB00A89A96CF80E82F
:1002C0000E94530082ED90E00E94C600A89888E644
:1002D0000E94EB00A89A89CF80E80E94530084EE28
:1002E00090E00E94C600A89889E60E94EB00A89AB8
:1002F0007CCF80E80E94530085EF90E00E94C6000A
:10030000A8988AE60E94EB00A89A6FCFEE0FFF1F15
:0C0310000590F491E02D0994F894FFCFC3
:10031C006C616D70206F6E65206973206F6E006C60
:10032C00616D702074776F206973206F6E006C6143
:10033C006D70207468726565206973206F6E006C37
:10034C00616D7020666F7572206973206F6E005737
:10035C00617368696E67206D616368696E65206F93
:10036C006E006C616D70206F6E65206973206F6616
:10037C0066006C616D702074776F206973206F66F6
:10038C0066006C616D7020746872656520697320FD
:10039C006F6666006C616D7020666F757220697394
:1003AC00206F66660077617368696E67206D6163A4
:0A03BC0068696E65206F6666000038
:00000001FF
