:100000000C9434000C943E000C943E000C943E0082
:100010000C943E000C943E000C943E000C943E0068
:100020000C943E000C943E000C943E000C943E0058
:100030000C943E000C943E000C943E000C943E0048
:100040000C943E000C943E000C943E000C943E0038
:100050000C943E005D005F006100630065006A0073
:100060006C006E007000720011241FBECFE5D8E056
:10007000DEBFCDBF0E944B000C947C000C940000AE
:10008000BF9ABD98BE9887B387BB6E9A0895779B39
:10009000FECF8FB1089584B38FEF84BB0E944000E0
:1000A0000E94470090E0FC01E156F109EA30F105B9
:1000B000B8F7E65DFF4F0C947600A89AF1CFA99AA5
:1000C000EFCFAA9AEDCFAB9AEBCF85B3806585BB16
:1000D000AD98E6CFA898E4CFA998E2CFAA98E0CF50
:1000E000AB98DECFAC9AAD98AE98DACFEE0FFF1F8B
:0C00F0000590F491E02D0994F894FFCFE6
:00000001FF
